S021000052544F532D5446542D4C43442D494C49393334312D6C76676C2E73726563E2
S21440000098C1432065834100638341006383410078
S2144000106383410063834100638341000000000026
S214400020000000000000000000000000115B4100DE
S2144000306383410000000000B15B4100195C410051
S2144000406383410063834100F58A41006383410036
S21440005063834100638341006383410063834100BF
S2144000606383410000000000417F4100557F41000E
S214400070697F41006383410063834100638341009D
S2144000807D7F4100917F410063834100638341004F
S214400090638341006383410063834100638341007F
S2144000A0638341006383410063834100638341006F
S2144000B0638341005D59410063834100638341008F
S2144000C0638341006383410063834100638341004F
S2144000D0638341006383410063834100638341003F
S2144000E0715941006383410063834100638341004B
S2144000F0638341006383410063834100638341001F
S214400100638341006383410063834100638341000E
S2144001106383410000000000000000000000000073
S21440012063834100638341006383410063834100EE
S21440013063834100638341006383410063834100DE
S21440014063834100638341006383410063834100CE
S21440015063834100638341006383410063834100BE
S214400160638341006383410010B5054C237833B95F
S214400170044B13B10448AFF300800123237010BD35
S214400180E809402000000000B87142000C4B43B123
S2144001900C480D4910B5AFF300800C48036823B9EE
S2144001A010BD0A48036833B97047094B002BF7D097
S2144001B0BDE810401847064B002BF5D0184700BF47
S2144001C000000000B8714200EC094020B8714200BF
S2144001D00000000021B9436823F0010343607047E4
S2144001E0436843F00103436070470162704730B490
S2144001F085688468A54203D085688468AC42FBD194
S21440020061B1C4F3015000EB8005C4F3034000EB3A
S214400210450014F4800F18BF0C30086042B1C4F398
S214400220023101EB8101C4F3032000EB4101116070
S21440023043B1C4F3021202EB820204F00F0404EB53
S21440024042041C6030BC7047F0B4446814F0010FA0
S21440025005D00C2903D90C394FF4800700E000275D
S2144002601C4CA4FB0356F60806EB8605A3EB450399
S21440027043EA0613A4FB0265ED0843EA053305EBA3
S2144002808505A2EB450543EA05233B43A4FB014213
S214400290D20843EA025302EB8202A1EB420143EA50
S2144002A00141836913F0040FFBD0036843F0010358
S2144002B00360836913F0010FFBD00123C3618160A3
S2144002C0036823F001030360C06A00F00100F0BC3D
S2144002D0704700BFCDCCCCCC70B42A4DA5FB0346AE
S2144002E0F608039C640544EA067406EB8606A3EB10
S2144002F0460344EA0363A5FB0264E40843EA045366
S21440030004EB8404A2EB440243EA02421E4BA3FBE6
S21440031001439B0942EA03121C4BA3FB01435B09C2
S214400320A5FB0364E40804EB8404A3EB44031A43EC
S214400330A5FB0143DB0803EB8304A1EB440142EA3F
S2144003400122A5FB0315ED0805EB8505A3EB450546
S21440035042EA0532836913F0040FFBD0036843F08A
S21440036002030360836913F0010FFBD00123C361CE
S214400370C260036823F002030360C06A00F0020014
S21440038070BC7047CDCCCCCCD34D62101F85EB51A2
S21440039080697047C161704708B10069704710B501
S2144003A082B0084B984710B1006902B010BD064BAA
S2144003B00093064B352206490220064CA0470020F3
S2144003C0F3E700BF4D054100E4C94100E0C84100E5
S2144003D0B4C94100F912410008B14069704710B5F0
S2144003E082B0084B984710B1406902B010BD064B2A
S2144003F00093064B462206490220064CA0470020A2
S214400400F3E700BF4D05410014CA4100F4C841005F
S214400410B4C94100F912410008B1C069704710B52F
S21440042082B0084B984710B1C06902B010BD064B69
S2144004300093064B682206490220064CA04700203F
S214400440F3E700BF4D05410078C941000CC94100A3
S214400450B4C94100F912410008B1006A704710B5AE
S21440046082B0084B984710B1006A02B010BD064BE8
S2144004700093064B792206490220064CA0470020EE
S214400480F3E700BF4D0541003CC9410024C9410087
S214400490B4C94100F912410008B5034608B198684E
S2144004A008BD024B98470346F9E700BF4D0541009B
S2144004B0A0B10068A8B1036923B9006898B1036980
S2144004C0002BFAD010B50C460023CB600369984742
S2144004D0207E80F0010000F0010010BD4B681868D7
S2144004E0E8E7012070470120704700002DE9F843F7
S2144004F00646554B984720B1006883680BB1317A61
S214400500984773689B6853B19A7E52B1DC6831460F
S21440051000204E4B984707460025A84619E0002481
S214400520F5E70024F3E76368F360236830469847AE
S214400530337E13F0010F40F08580013573689B6869
S214400540EBB19A7E95421CD205EB4504DB6803EB83
S214400550840414F1000918BF4FF00109012F18BF99
S2144005604FF00009B9F1000F0DD02368002BE4D0FE
S214400570237A002BD7D0327A9A42DED1D3E744464C
S214400580E7E74446E5E7012F02D03846BDE8F88362
S21440059070684368002BF8D0337A233B012B0FD882
S2144005A04FF00109B9F1000FEFD073685B687360D4
S2144005B03046FFF79BFF012814BF00270127E4E7DA
S2144005C04FF48051224B98470028DED0337A113BB7
S2144005D0192BEAD801A252F823F000BFA505400027
S2144005E0A5054000A5054000A5054000A50540001E
S2144005F0A5054000A5054000A5054000A50540000E
S214400600A5054000A5054000AB054000AB054000F1
S214400610A5054000AB054000AB054000A5054000E1
S214400620A5054000A5054000A5054000AB054000D7
S214400630AB054000A5054000A5054000AB054000C1
S214400640A50540000027A0E7C90B4000B1044000C4
S21440065079164000C8B110B588B0019002908DF868
S2144006600C100021049105929DF81C3061F30003A4
S2144006708DF81C30064C2368069301A82060054B75
S2144006809847069B236008B010BD0120704700BF06
S214400690040A4020ED04400000687047007A704726
S2144006A000697047084B1B683BB970471A7E42F09A
S2144006B001021A765B69002BF7D05A688242F5D061
S2144006C01A689042F6D1F1E7040A40202DE9F0413D
S2144006D084B004460F4616461D46234B9847A268EC
S2144006E0937E01339376D4F8088098F81A1001EB7D
S2144006F041018900D8F80C001C4B9847C8F80C00FC
S214400700A268D3681BB3927E02EB420203EB8203DD
S21440071043F80C7CA268937ED26803EB430302EB5B
S214400720830303F8046CA268937ED26803EB43030A
S21440073002EB830343F8085CA268937E03EB430313
S2144007409B000C3BD068184404B0BDE8F081084BD1
S2144007500293084B0193084B0093084BA02208498C
S2144007600320084CA047FEE76D1B40005919410086
S214400770E4CA4100F4CA410018CB410048CA4100CF
S214400780B4CA4100F9124100037A013BDBB20F2B99
S21440079001D80069704710B582B0064B0093064BEF
S2144007A040F2091205490220054CA047002002B03D
S2144007B010BD00BF8CCA41005CCA4100B4CA4100AB
S2144007C0F9124100037A132B0CD010B582B0094BB6
S2144007D00093094B4FF4AA7208490220084CA047E0
S2144007E002B010BD0269B2F900309942B8BF19464E
S2144007F0118070478CCA410070CA4100B4CA41009B
S214400800F91241002DE9F84305460020154B98475C
S21440081010B304464FF00009C846134E114F07E088
S214400820A146042808BFA0462046B847044640B123
S2144008302046B047236DAB42F6D10228F0D1A04601
S21440084002E0B8F1000F02D04046BDE8F883B9F1A7
S214400850000F01D0C846F7E70020024B9847804675
S214400860F2E700BF19064100D50B4000037E13F0A7
S214400870010F7ED12DE9F04F83B093460191824619
S214400880C568012300934FF00008DFF8FC90394F0D
S214400890EDB1B8F1000F08BFA84629465046D847E4
S2144008A0054640453ED0002DF2D02868C84710F097
S2144008B0800FEDD12C682CB32F4E01212046B04737
S2144008C0C8B92046B84704460028F6D11AE09AF838
S2144008D0183013F0080F02D1B8F1000F22D1009B58
S2144008E003B35046019B98470546B8F1000F3AD0EF
S2144008F000230093D7E72CB1012120461E4B984792
S2144009000028C5D1DAF80C30AB420BD093B11C6846
S21440091050461A4B984702460F212046184B984798
S214400920012802D003B0BDE8F08FDAF80C30186822
S214400930144B9847CAF80C502C6850460F4B9847B3
S21440094002460E2120460E4B98470128EAD1DAF897
S2144009500C3018680B4B9847DAF81030002BE1D073
S21440096050469847DEE70028DCD0804600230093B8
S2144009709BE7704709604000791640000508400034
S21440098055064000712840009316400008B51C21CB
S2144009900148024B984708BD809F4320AB11410059
S2144009A0014B1868704700BF080A402008B5024A45
S2144009B00249034B984708BDD1124100BD12410081
S2144009C06D08400008B5024A0249034B984708BDE7
S2144009D0D9124100C71241006D08400038B50446A0
S2144009E0037EC3F3C00543F00803037613F0040FF9
S2144009F00CBF044B044B9847237E65F3C303237612
S214400A0038BD00BFAD094000C5094000002847D0AA
S214400A10F0B585B007460C460646224B9847014639
S214400A2060B103689C4207D01F4D3046A847014638
S214400A3020B10B68A342F8D105B0F0BD20461B4B51
S214400A40984730B1A3689B681BB1DB681B689C4223
S214400A5012D0A3689BB1A3689F603846144B984752
S214400A60054680B1046038460E4B98478542E3D130
S214400A703846104B9847DFE70E4B9847E9E7204645
S214400A800D4B9847E7E70D4B02930D4B01930D4BEB
S214400A9000930D4B81220D4903200D4CA047FEE7E5
S214400AA0704700BFBD124100D1124100971640006A
S214400AB009124100DD0940006D1B4000E4CA4100B8
S214400AC04CCB410018CB410038CB41005CCB4100B9
S214400AD0F91241002DE9F04105462E4B9847002873
S214400AE055D08046C36813B11B689D4221D0464608
S214400AF04046294B98470446002848D003689D4204
S214400B0009D0264F21463046B847044600283ED0F6
S214400B1023689D42F6D121464046214B98472046C1
S214400B20204B9847AB68002B31D000229A60BDE836
S214400B30F081037E13F0010F03D0037E6FF30003B2
S214400B4003764046144B9847D8F80C3083420DD075
S214400B504046154B9847D8F80C30002BC7D01B683A
S214400B609D42C4D10023C8F80C30C0E740460F4B26
S214400B709847D8F80C309842EAD1046840460C4B67
S214400B80984702460F2120460A4B9847E3E7BDE8C0
S214400B90F08100BF97164000BD124100D1124100BF
S214400BA055124100FD144100DD094000C7124100C6
S214400BB0050840005506400018B1007EC0F34000CE
S214400BC07047002070470000014B1868704700BF10
S214400BD00C0A402010B10368187870470020704710
S214400BE000B30346427942F0020242712A4A126832
S214400BF0904206D01A681278013AD2B2012A04D935
S214400C0070470020254A1060F4E7E1B11A6B914224
S214400C1016D05A6A914218D09A6A9142F0D1002270
S214400C209A62704770B50C4600201D4B98470346A5
S214400C3010B100261A4D18E00022184B1A6070BDFD
S214400C4000221A63E5E700221A6300225A6200294E
S214400C50E2D1E4E71E6317E01E635E62BCB99E62A3
S214400C601846A84703460028E6D05A7942F00202C2
S214400C705A711A681278013AD2B2012AF0D8002C7A
S214400C80EAD01A6B9442E5D05A6A9442E5D09A6A02
S214400C909442E5D1E3E700BF0C0A4020100A40200A
S214400CA01906410050B103681B7803F0FD03012B81
S214400CB006D190F8400000F00F00704700207047C3
S214400CC00020704738B103681B7803F0FD03012B02
S214400CD003D1C06A7047002070470020704700006C
S214400CE0014B1868704700BF100A40202DE9F047B6
S214400CF0A4B00646744B984705463046734B984713
S214400D000446122D07D0152D67D0182D00F0F88018
S214400D1024B0BDE8F08730466D4B984705460378CB
S214400D20022BF5D06122002120466A4B984710B12D
S214400D3002232B70ECE7602200212046654EB04728
S214400D4007B240F60A0200212046B047804640F6E9
S214400D500B0200212046B047B4F91620B4F918C05B
S214400D60B4F91AE01FFA88F3A18AC91AADF84810F8
S214400D706344ADF84C3080B2121AADF84A20704445
S214400D80ADF84E003A4612A96868534B984710B9DA
S214400D9001232B70BCE72122002120464D4B98476B
S214400DA0C0B2FC2802D801232B70B1E7682200218C
S214400DB02046484B9847C0B210B101232B70A7E796
S214400DC040F2624200212046424B9847C0B2FC287F
S214400DD094BF012300232B709AE730463C4B98473C
S214400DE0804605A83D4B9847342200212046394B83
S214400DF0984728B19DF8333043F001038DF83330DF
S214400E0005AF3A4600212046354B984740F60A0241
S214400E10002120462F4EB047054640F60B020021E3
S214400E202046B047B4F91620B4F918C0B4F91AE011
S214400E30ABB2A18AC91AADF80C106344ADF81030B5
S214400E4080B2121AADF80E207044ADF8120041463A
S214400E5012A8244B9847244B1393002514951697B5
S214400E600DF10C0ACDF854A01F9512AA1A2120465F
S214400E70DFF88890C8473A46414650461B4B98474D
S214400E8012AA1B212046C847612229462046B04761
S214400E9000283FF43DAF602229462046B04705B2C1
S214400EA0002D3FF435AF1820114B984706460023D7
S214400EB02A4604F114010F4DA84704F590713046B8
S214400EC00D4B984724E700BF9D064000990640001A
S214400ED0A106400061514000AD0D41005DAD4000AF
S214400EE0691E4000C122400020CC41001DB5400094
S214400EF0C5194100BDA64000ADA3400055064000C0
S214400F003046A84B9847054603AA01A92046A64B5B
S214400F10984701A8A54B984720B903A8A34B9847E4
S214400F2000286CD005A8A24B984721224FF4803168
S214400F302046A04B9847C0B28DF81E00022800F20B
S214400F40BD8031224FF4803120469A4B9847C0B23C
S214400F508DF83200022800F2BA8040F645024FF47F
S214400F6080312046934B9847C0B28DF84600022801
S214400F7000F2C68040F262424FF4803120468D4BEC
S214400F809847C3B2FC2B10D818469DF81E3000FB7D
S214400F9003F31B128DF81E30DBB200FB03F0C0F3E8
S214400FA007238DF832308DF846309DF81E302BB929
S214400FB09DF8323013B99DF8463003B360224FF4A3
S214400FC0803120467B4B9847ADF81400294612A83E
S214400FD0794B9847794B13930223149305AB16939A
S214400FE04FF480331F9301A8704B9847002840F079
S214400FF0A88003A86D4B9847002840F0B380612234
S214401000002120466B4B9847002840F0BC80342295
S21440101000212046674B984700283FF479AE0DF1F3
S21440102014084046624B984700268DF81E608DF89F
S2144010303A608DF84660424631462046604B9847B7
S21440104040F60A02314620465A4FB847814640F697
S2144010500B0231462046B847B4F91620B4F918C0FA
S214401060B4F91AE01FFA89F3A18AC91AADF80C1030
S2144010706344ADF8103080B2121AADF80E207044BA
S214401080ADF81200294612A84B4B98474B4B13938A
S21440109001231493CDF8588003AF15971F9612AAD4
S2144010A01A212046474EB047424629463846464BC8
S2144010B0984712AA1B212046B04729E620224FF423
S2144010C0803120463B4B9847ADF8180039E741F24F
S2144010D032024FF480312046364B984700B2ADF886
S2144010E03000002808DD30224FF480312046314B56
S2144010F09847ADF82E0030E700238DF832302CE7C5
S2144011004FF404624FF4803120462A4B984700B291
S214401110ADF83E00002810DD40F643024FF4803123
S2144011202046244EB047ADF8440044224FF4803168
S2144011302046B047ADF83C001CE700238DF846300B
S21440114018E701AF159712AA1A2120461D4EB04740
S21440115005AA294638461C4B984712AA1B2120460A
S214401160B04746E703AF159712AA1A212046154EF8
S214401170B04705AA29463846134B984712AA1B2162
S2144011802046B0473BE704F59070104B984706461C
S21440119000283FF43CAF0E4B984730460D4B9847DF
S2144011A035E700BFA1064000A5454000910B410031
S2144011B05DAD400061514000C122400020CC41005E
S2144011C0691E4000550640001DB540007DA4400005
S2144011D0B9A44000211541002DE9F8434F6847B3B4
S2144011E00E463846154B984780463846144B984727
S2144011F00446FD8A41F6100200213846DFF8449046
S214401200C8472844001B80B2F08201387083BC8AED
S21440121041F6120200213846C8472044A0EB080099
S21440122080B2B0820138308342F67653F361BDE82F
S214401230F88340F27643CB61BDE8F883853D4000B5
S214401240853C4000615140002DE9F04F8DB0038C45
S2144012500B938B4208D0079104900A4601841946A6
S214401260834B98470A9010B90DB0BDE8F08F4FF405
S2144012702070804B984709904FF420717E4B9847DA
S214401280049B5B8C13F4FC7F00F0D0800023059316
S2144012909A46DFF80092DFF8E4B122E01A68138835
S2144012A083B1672B04D032F8083F5BB1672BFAD185
S2144012B0D2F804804FE000234BE09A88C2F30E0237
S2144012C0672A52D0059B01331A460593049B5B8CD4
S2144012D0C3F3C503934240F29280BAF11F0F00F267
S2144012E08E80059BDC00049FFD682B191E460893E4
S2144012F0586820F07F40C84780460690FB682344E5
S214401300586820F07F40D84703904346079A934357
S214401310D8D1F37913F0020FD4D12B5993F9052085
S214401320002ABBDBDC79002CCCD0012CC5D9186850
S2144013302146A200002CC5D0024430F82430672B4A
S214401340B9D0002301339942BCD032F8024F672C03
S214401350F8D150F82380D8F800301B88002BB1D045
S214401360BAF11F0FAED8002743E0D3F80080F2E76B
S21440137001351434554514D066683046C847029047
S2144013803046D847D8F800302289DB5B9A42EFD106
S214401390039B8342ECD1069B029A9342E8D8AA4527
S2144013A01CD10AEB8A02099800EB8203D8F80C108D
S2144013B020F82210D8F810205A80D8F80820DA6092
S2144013C0D8F80020D25B1A81D8F804201A61089A0F
S2144013D05268C2F317025A600AF1010A0237D8F877
S2144013E00030DB5B002B3FF46DAFBAF11F0F3FF6CA
S2144013F069AFBAF1000FD4D0099C0025BCE7BAF11A
S214401400000F13D0099C00251C4F1D4EDDF82C8084
S214401410DDF81C906068B84700944B46424601464B
S2144014200498B04701351434AA45F3D10998154BB2
S21440143098470A9B012B0ED00A9B032B0FD00A9B82
S214401440022B7FF411AF049C20460F4B9847204652
S2144014500E4B984708E704980B4B984704E74FF61F
S214401460FF724FF470210498094B9847FCE600BF82
S214401470855C4000C5194100091B4100E55E4000FF
S214401480D95A40002115410071284000E52240000D
S21440149045534000E15E400010B582B0154B1B78C6
S2144014A0F3B9154B9847154B9847154B9847154B2E
S2144014B09847154B9847154B98474FF4AE711448CC
S2144014C0144CA04758211448A047144B9847144B37
S2144014D09847144B98470122064B1A7002B010BD2D
S2144014E0114B0093114B642211490220114CA04726
S2144014F0F4E700BF140A4020DD144100512A4100A1
S214401500B10F4100B50841008D09400041514000EF
S214401510909E4320AB114100789E43204D62400090
S21440152021E84000F9004100F0CB41009CCB41004F
S214401530C0CB4100F9124100F0B585B004460D46D7
S214401540184B9847064615F0010F11D1E3692B4317
S214401550E3612046134B9847864212D02046124BF2
S2144015609847124B984715F0100F0ED105B0F0BDB6
S21440157020460F4FB847E3692B43E3612046B84700
S214401580E7E715F0C07FEED0E8E702AA69462046B6
S214401590084B984769462046074DA84702A920466B
S2144015A0A847E3E7E12340000960400025244000C7
S2144015B071284000A54540002D284000F0B585B074
S2144015C004460D461B4B9847064615F0100F12D1A1
S2144015D0E36923EA0503E36115F0010F18D12046BD
S2144015E0144B9847864221D02046134B9847134BBE
S2144015F0984705B0F0BD02AA69462046104B98476A
S214401600694620460F4FB84702A92046B847DFE74D
S21440161020460D4B98472046064B98470028DED07C
S2144016202046054B9847054B9847D8E715F0C07FAE
S214401630DAD1DEE7E123400009604000252440007F
S214401640A54540002D2840007128400008B5038C71
S21440165019438B4201D0014B984708BD49124000C0
S21440166008B5038C23EA01018B4201D0014B984711
S21440167008BD00BF49124000C36931EA03030CBFEE
S214401680012000207047C369194214BF0120002082
S2144016907047008C704783680BB19868704700208D
S2144016A0704700002DE9F04184B00E460846A64B30
S2144016B0984704463046A54B98470546012C29D006
S2144016C0082C2BD0032C49D0282C4BD00D2C59D08D
S2144016D00E2C00F01881092C00F07A810A2C00F0BC
S2144016E07B810F2C00F08E81272C00F08F81222CDE
S2144016F000F0B081132C00F0D381182C17D84FF08F
S214401700927323FA04F414F0010F10D03046904B35
S21440171098470CE020218F4B984708E020218E4BBD
S214401720984730468D4B98478D4B984710B104B03C
S214401730BDE8F081EB6913F0080FF8D02B8C13F05E
S214401740010F4FF0010128460CBF824B824B984751
S21440175000221C212846834B9847E8E720217E4BF1
S2144017609847E4E7804B984706460028DFD0002499
S2144017707E4FAB681B6853F82400B8470134A64236
S214401780F7D1D4E7C36913F0080F39D113F0100F1F
S214401790CDD0774B98470028C9D12846754B9847F7
S2144017A007462846744B9847044630466B4B984746
S2144017B00378122B42D0112B53D0132B64D0142B0A
S2144017C0B5D128466D4B984710F0030F05D0002F33
S2144017D000F38880002C00F385802846684B9847A5
S2144017E004462846674B984701460028B8BFC11CA8
S2144017F0A4EBA101002209B22846634B984796E71E
S2144018003046564B9847047804F0FD03112B0BD016
S214401810142C0ED0122C0CD00A2C88D000221C215E
S2144018202846504B984782E701212846494B98471F
S214401830F2E701212846484B9847EDE72846504BAB
S2144018409847044628464F4B984701460028B8BF5D
S214401850C11C04EBA101002209B228464A4B984716
S21440186065E72846464B984704462846454B9847E2
S21440187001460028B8BFC11CA4EBA101002209B252
S2144018802846414B984752E728463C4B984710F02D
S214401890030F03D0002F14DC002C12DC2846384BF4
S2144018A0984704462846374B984701460028B8BF15
S2144018B0C11C04EBA101002209B22846324B9847CE
S2144018C035E72846314B984704462846304B9847DC
S2144018D0042390FBF3F31919002209B228462D4B36
S2144018E0984724E72846294B984704462846284BDD
S2144018F09847042390FBF3F3E11A002209B22846E6
S214401900244B984713E7C36913F4007F12D1284647
S214401910214B9847214B98470446214B984703460E
S21440192060B118461F4B9847022841D004283FD044
S21440193002213EE001211C4B9847E8E730461B4B0E
S21440194098470346EDE700BF9D06400099064000D5
S214401950ED0C40004D16400061164000A1064000C8
S214401960C50C40005506400041604000252440001C
S214401970671D4000853D4000813E4000ED3B4000F5
S214401980513C400023254000CD4440001D3C4000D3
S214401990172540002D44400097164000B90B4000E4
S2144019A0C90B4000D50B4000514540008907400018
S2144019B006212CB141F008012846414B9847B6E62F
S2144019C028463F4B9847082128463E4B9847AEE668
S2144019D040213B4B9847AAE640213A4B9847284639
S2144019E0394B984702287FF4A2AE02AA6946284699
S2144019F0364B984769462846354CA04702A92846A4
S214401A00A04794E60E212F4B984790E641F20902F4
S214401A100021304CA047C6B241F269020021284658
S214401A20A04780B290B98EB928462B4B98470646B9
S214401A3000283FF47CAE0024284FAB681B6853F860
S214401A402400B8470134A642F7D170E62846234B17
S214401A509847E9E741F2010200211E4CA04707B231
S214401A6041F2040200212846A0470FFA80F841F2CE
S214401A70090200212846A047C6B241F26902002169
S214401A802846A04780B238B936B942F2D1739F4251
S214401A9002D098457FF44BAE2846104B984746E612
S214401AA030460F4B98470446002128460D4B984732
S214401AB0B4F900309842B8BF1846208037E600BFD9
S214401AC04D16400061164000DD3B4000A5454000F5
S214401AD02D284000615140004160400025244000D0
S214401AE0A1064000CD21400038B50C460846174BAD
S214401AF098470020164DA847164A00212046164B08
S214401B0098470120A84700212046144B9847204676
S214401B10134B984710B12046124B9847A3689BB189
S214401B20186820B1104B9847A36800221A60A36833
S214401B30D86820B10C4B9847A3680022DA60A068AA
S214401B40094B98470023A36038BD00BFA506400058
S214401B5055514000FFFF0F00095540002D09410038
S214401B6097164000D50A4000FD144100836803B133
S214401B70704710B584B00446124A136801331360A8
S214401B801C20114B9847A06070B11C210F4B984702
S214401B90A268537E43F00F035376A268137E43F049
S214401BA00303137604B010BD094B0293094B01930F
S214401BB0094B0093094B4FF4AE7209490320094C78
S214401BC0A047FEE7180A4020D1184100091B4100F3
S214401BD0E4CA410008CC410018CB4100A4CB4100E8
S214401BE0C0CB4100F912410038B5044605682B6861
S214401BF013B10360FFF7F8FF25606B6813B1214609
S214401C002846984738BD0000F0B583B00C460746D6
S214401C10002837D08269404B1340002B7AD10346C8
S214401C203D491B68002B2FD09A691142F9D09E6916
S214401C30C6F30F163046394B98470546002867D0FE
S214401C403146374B98472F606C60FCB1A368002B39
S214401C504FD0A6683368002B4FD07368013373604B
S214401C60A6687168890030682E4B98473060A26835
S214401C7051686FF040430B44126842F823502846A0
S214401C8003B0F0BD0026D5E70026D3E7264B98479D
S214401C900446E0B1C06820B3616A013161628900E0
S214401CA0204B9847E060626A6FF04043134440F828
S214401CB023500024AC82EC8220461C4B98470138C7
S214401CC0288320461A4B984701386883D7E7194B34
S214401CD00093194B3A2219490220194CA047002577
S214401CE0CDE704200D4B9847E06005600123636212
S214401CF0DFE72046134B9847ABE70420074B98474F
S214401D003060A3681B681D60A36801225A60B6E76E
S214401D100025B4E703468AE7F0FF0F00D1184100DC
S214401D20091B4100591941004D0541005905410024
S214401D308905410088CC41003CCC410054CC410050
S214401D40F91241006D1B400010B5044600688368D8
S214401D500BB12146984723681B681BB12360204679
S214401D60FFF7F2FF10BD03688BB11A7E12F0030F27
S214401D7005D11B686BB11A7E12F0030FF9D0187E9E
S214401D8000F00300012814BF002001207047002007
S214401D9070470020704703688BB11A7E12F00C0F14
S214401DA005D11B686BB11A7E12F00C0FF9D0187E65
S214401DB000F00C00042814BF0020012070470020CB
S214401DC0704700207047000070B504461A4B98478D
S214401DD000201A4DA8472046194B98472046194BD5
S214401DE098470120A8474FF6FF724FF470212046CF
S214401DF0154B98472046154B9847154B984720B1AA
S214401E0005462046134B984780B92046124B9847C4
S214401E10054650B122462221104EB0472246232185
S214401E202846B04720460E4B984770BD2146284668
S214401E300C4B9847E9E700BF252440005551400029
S214401E40AD634000E91B4000455340007526400006
S214401E50A1094000971D400009604000550640001B
S214401E60712840000D0A40002DE9F84306460D460D
S214401E7014466022A94B98472080002D61D14FF030
S214401E80FF0840F2624229463046A44B9847C7B204
S214401E90022F5FD9B8F1020F5CD968222946304636
S214401EA09E4B9847A070A37A002B5CD141F2320239
S214401EB029463046994B984700B2A08310B1A37F7D
S214401EC0002B7ED140F63A0229463046934B98473F
S214401ED000B2608420B194F82630002B40F08D800C
S214401EE0A37D002B40F0A48094F83230002B40F0C5
S214401EF0DD80B8F1FC0F03D808FB07F7C7F30727C8
S214401F00FC2F1CD8BFB2A37A13FB07F3C3F30723F7
S214401F10A372A37F13FB07F3C3F30723A37794F8B7
S214401F20323013FB07F3C3F3072384F8323094F8B8
S214401F30263013FB07F7C7F3072784F82670BDE85B
S214401F40F88340F2624229463046744B98475FFA1F
S214401F5080F896E70023A372A37784F8323084F89B
S214401F602630BDE8F8832122294630466B4B9847F9
S214401F70C0B2A072022899D944F2200229463046BF
S214401F80DFF89891C847A080232229463046C847A4
S214401F90C0B2E37A60F30203E37213F0070F85D012
S214401FA044F2220229463046C847E0802422294689
S214401FB03046C8472072252229463046C8476072B8
S214401FC074E7312229463046544B9847C0B2A07732
S214401FD002287FF677AF332229463046DFF83C9119
S214401FE0C847C0B2E37F60F34503E37744F230026C
S214401FF029463046C847608364E740F63C02294697
S2144020003046464B9847C0B284F8260002287FF6F2
S21440201067AF40F63D0229463046DFF80091C84794
S214402020A08444F23B0229463046C847208457E7FE
S21440203040F6260229463046384B9847E06000284E
S2144020403FF452AF272229463046344B9847C0B219
S214402050A07502287FF648AFE068314B98470228C3
S21440206015D044F2280229463046DFF8B090C847DB
S214402070A082292229463046C847E0752A222946AA
S2144020803046C847003018BF012020762CE741F282
S214402090594229463046DFF88490C847206144F2CA
S2144020A0574229463046C847A0821DE74FF404628F
S2144020B029463046194B984700B2608500283FF4C1
S2144020C018AF94F83230022B7FF613AF40F6450235
S2144020D029463046114B9847C0B284F83200022851
S2144020E07FF607AF40F6410229463046DFF82C908F
S2144020F0C847A08540F6420229463046C847E08594
S21440210040F6430229463046C847208644F24402F9
S21440211029463046C8472085EBE600BF615140005F
S214402120C9864000F8B505460E4614464FF48B6205
S214402130254B9847C0B2A076022800D8F8BD40F29A
S214402140624231462846204B9847C0B2FC2804D805
S214402150A37E03FB00F0000AA076A37E022BEDD9F7
S21440216044F2574231462846174FB847A08141F2BD
S2144021705A4231462846B847A08241F25B42314631
S2144021802846B847608240F25C4231462846B84707
S214402190C0B2A37F60F30203A37768223146284685
S2144021A0B847C0B2A37F60F3C503A37741F2594254
S2144021B031462846B847206041F25D4231462846BF
S2144021C0B8472077BAE700BF615140002DE9F0419B
S2144021D005460E464FF40462384B984704B204BB9B
S2144021E040F63A0231462846344B984707B2002F0D
S2144021F04ED140F60A0231462846304FB8470FFACD
S21440220080F840F60B0231462846B84700B24045B3
S214402210B8BF4046002801DD204404B22046BDE851
S214402220F08140F6450231462846244B9847C0B2D6
S214402230022801D80024D3E740F643023146284618
S2144022401E4B98472346002CB8BF631C441C04EB27
S2144022506304A4B240F6410231462846DFF85C806B
S214402260C04707B240F6420231462846C04700B251
S21440227080EAE073A3EBE07387EAE770A0EBE770D1
S2144022808342ACBFE418241820B220EAE074A7E7E3
S21440229040F63C0231462846084B9847C0B20228D2
S2144022A0A7D940F63D0231462846044B984707FAE0
S2144022B080F0A042B8BF204604B29AE76151400081
S2144022C038B504460D464821014B9847256038BD31
S2144022D0091B4100836813B1B3F91600704700200C
S2144022E07047000030B583B00446164B9847054605
S2144022F002AA002322F8023D13212046124B98479B
S214402300BDF90630AB4202D02046104B9847A36832
S2144023105BB1BDF80620DA82BDF90630AB4202D08A
S21440232020460A4B984703B030BDBDF90630002B17
S214402330F2D02046064B9847A368BDF80620DA82BE
S214402340EAE700BFD522400055064000712840000D
S2144023506D1B400070B582B006460D46002301AAAC
S21440236041F20701074CA047012807D020B90022B8
S21440237029463046044B984702B070BD019BAB429D
S214402380F5D1F9E7995A4000155F400070B582B024
S21440239006460D46002301AA41F20801074CA04715
S2144023A0012807D020B9002229463046044B9847DA
S2144023B002B070BD019BAB42F5D1F9E7995A400097
S2144023C0295F400038B504461546034B98472946D2
S2144023D02046024B984738BD552340008D23400089
S2144023E038B505460B490C4B984710B1002420469B
S2144023F038BD04462846094B98470028F7D041F296
S21440240069020021064B984780B2041C18BF01247D
S214402410EDE700BF018001008716400009604000DC
S2144024206151400008B590F8223043F0010380F82F
S2144024302230074B984790F8223043F0020380F84A
S2144024402230044B98474068034B984708BD00BF6E
S214402450795F4000895F4000172D410070B584B019
S21440246006460C46134B196801311960124DC900D7
S2144024702868124B9847286070B102460D4B186882
S2144024806FF06043034442F833600B4A126802EB35
S214402490C3035C6004B070BD094B0293094B0193C3
S2144024A0094B0093094B4FF4A27209490320094C8B
S2144024B0A047FEE71C0A4020E49E432059194100ED
S2144024C0E4CA410010CD410018CB4100C8CC4100C1
S2144024D0DCCC4100F912410070B5044615461E4654
S2144024E00022044B9847324629462046024B9847DE
S2144024F070BD00BF3D5F4000C5234000B0F91430BA
S2144025000B80B0F916304B80B0F918308B80B0F99C
S2144025101A30CB807047038B0133808A181A00B27A
S2144025207047438B0133C08A181A00B270470000C8
S214402530F8B5054641F6120200210C4EB047044657
S21440254041F6130200212846B047074641F23202C0
S21440255000212846B0473C44C4F10104A4EB4000A7
S2144025602C8B2044AC8A001B00B2F8BD6151400061
S214402570F8B5054641F6100200210C4EB047044619
S21440258041F6110200212846B047074641F2320282
S21440259000212846B0473C44C4F10104A4EB400067
S2144025A06C8B2044EC8A001B00B2F8BD61514000A1
S2144025B0F8B507460C4641F232020021164EB047A7
S2144025C0054621463846154B9847694209B20A46A1
S2144025D02046134B984741F6120200213846B04732
S2144025E023881844208041F6130200213846B0471D
S2144025F0A388181AA08041F6100200213846B0473A
S21440260063881844608041F6110200213846B0477E
S214402610E388181AE080F8BD61514000FD24400070
S214402620AD0B410000B583B00023ADF804304FF445
S2144026302043ADF8063001AA2A21034B9847BDF93E
S214402640040003B05DF804FB5506400000B583B0B7
S2144026504FF42043ADF804300023ADF8063001AA0D
S2144026602A21034B9847BDF9060003B05DF804FBEA
S2144026705506400070B5054641F2010200210B4C5C
S214402680A04706B241F2040200212846A04742F283
S214402690D1739E4204D000B2984201D0002070BD53
S2144026A02846034B9847012070BD00BF615140004B
S2144026B0252440002DE9F04F83B081460E46009118
S2144026C0144601929A46184B984750B380460025C8
S2144026D0B7B2A6B2DFF854B014E0A38A3B44A38254
S2144026E0E38A3344E382238B3B442383638B334424
S2144026F063830023019A00992046FFF7DBFF0135EC
S214402700A8450ED0D9F808301B6853F82540BAF1D2
S214402710000FE2D04FF480312046D8470028EED153
S214402720DBE703B0BDE8F08F41604000791640001B
S2144027302DE9F04782B004460D460121314B9847BB
S21440274020B10026304602B0BDE8F08782462046DB
S2144027502D4B984706462D4B984780462C4B98471E
S214402760864210D040462B4B984786420BD0404678
S214402770294B9847864206D04046284B9847864283
S21440278001D05646DEE72046254B9847B4F916203A
S214402790B4F91830B4F91A6080B2A18A091AADF8B3
S2144027A00010121AADF802200344ADF8043030444D
S2144027B0ADF806006A46294628461A4B984706460C
S2144027C00028BFD02046184B984704460028B9D06A
S2144027D0DFF85080DFF82C90134F04F1140229469E
S2144027E02846C04706460028ACD001212046C847A8
S2144027F028B92046B84704460028EED1A2E75646F8
S214402800A0E700BF79164000795F4000895F40002E
S21440281099034000D9034000190440005904400081
S214402820D5224000E90B41000960400010B582B057
S21440283004460B88ADF800304B88ADF802308B88E4
S214402840ADF80430CB88ADF806306946054B98475E
S21440285008B902B010BD2046034B98476946034B63
S2144028609847F6E731274000895F400051624000B4
S21440287030B583B004460E4B9847B4F91620B4F9E9
S2144028801830B4F91A5080B2A18A091AADF800106F
S214402890121AADF802200344ADF804302844ADF8CF
S2144028A0060069462046034B984703B030BD00BF3C
S2144028B0D52240002D2840002DE9F04784B004463C
S2144028C00E461546476847B341F612020021384681
S2144028D0DFF83481C047814641F610020021384671
S2144028E0C04780464FF480312046464B98470028E4
S2144028F068D04E44B7F814904E4436B24544F88AF1
S21440290005442DB241F23202002138463E4B9847EC
S21440291080B2064436B205442DB2A18A711A8EB2F0
S2144029200FFA86F8E08A2D1AADB20FFA85F9B9F19A
S214402930000F08BFB8F1000F0CBF4FF0010A4FF070
S214402940000A3CD02046314B984702A92046304BDF
S21440295098475FB1694638462E4B984700226946ED
S21440296002A82D4B98478246002842D0A38A33447B
S214402970A382E38A2B44E382218B31442183638BF9
S2144029801D44658300234A4641462046234DA847BA
S214402990002F32D0224622213846214B98472046E7
S2144029A01A4B98470022694604F114001A4B984780
S2144029B0BAF1000F00D110B138461A4B984704B010
S2144029C0BDE8F087B7F9140000FA89F93846164B87
S2144029D09847A9EB00094E4436B2B7F9160000FAFC
S2144029E088F83846114B9847A8EB000005442DB2AE
S2144029F088E738460B4B9847B8E72046034B98473E
S214402A00DDE700BF79164000615140007128400064
S214402A10FD244000B1254000AD0D4100B5264000E4
S214402A2055064000494E40001D3C4000513C400089
S214402A302DE9F04F85B00446BB4B984710B105B022
S214402A40BDE8F08F2046B94B98478046009041F24B
S214402A50070200212046B64DA847814606B241F2FD
S214402A60080200212046A847074605B24346002BE9
S214402A705DD0DDF800804046AE4B9847019040461A
S214402A80AD4B9847029009F4C049B9F5005F54D061
S214402A9007F4C047B7F5005F64D043F20C0200214C
S214402AA02046DFF88C92C84707460FFA80FB43F271
S214402AB00D0200212046C84702B2238B0133A18A6B
S214402AC05B1A1FFA83F80FFA88FA638B0133E18AA0
S214402AD05B1A9BB203930FFA83F907F4C047B7F526
S214402AE0005F54D000F4C040B0F5005F65D05E444F
S214402AF0B6B237B21544ADB20FFA85FB41F20902C1
S214402B00002120468A4B9847C0B2002869D0012849
S214402B1070D00238072800F28380DFE810F071009A
S214402B2087009F00A700BF008D00CC00E3002A4628
S214402B3031462046814B984781E726F4C043B3F59B
S214402B40FA6FA5DCB3F57A7FC8BFC3F57A73019AEE
S214402B5002FB03F37A4A82FB0312DE17C6EB6216C9
S214402B6036B295E725F4C043B3F5FA6F95DCB3F576
S214402B707A7FC8BFC3F57A73029A02FB03F3704AA2
S214402B8082FB0312DD17C5EB62152DB285E72BF4E9
S214402B90C043B3F5FA6FA5DCB3F57A7FC8BFC3F57B
S214402BA07A730AFB03F3664981FB03714FEAE37BC2
S214402BB0CBEB611B0FFA8BFB94E722F4C043B3F5D3
S214402BC0FA6F94DCB3F57A7FC8BFC3F57A7309FB16
S214402BD003F35B4981FB0321DA17C2EB611212B2A1
S214402BE085E741F26A4200210098514B9847C0B2AF
S214402BF001281BD05A4639462046504B98471EE778
S214402C00019A1346002AB8BF01335B105746BAF103
S214402C10000FB8BF0AF10107A3EB67073E4437B27F
S214402C205A4639462046454B984708E7019BA3EB52
S214402C3008073E4437B2F3E7029A1346002AB8BF65
S214402C4001335B10CB46B9F1000FB8BF09F1010B59
S214402C50A3EB6B0B5D440FFA85FBE1E7029B039AFF
S214402C60A3EB020B5D440FFA85FBD9E7019A1346A6
S214402C70002AB8BF01335B105746BAF1000FB8BF01
S214402C800AF10107A3EB67073E4437B2029B039A5B
S214402C90A3EB020B5D440FFA85FBC1E7019BA3EB58
S214402CA008073E4437B2029B039AA3EB020B5D44EF
S214402CB00FFA85FBB4E7019BA3EB08073E4437B207
S214402CC0029A1346002AB8BF01335B10CB46B9F1CF
S214402CD0000FB8BF09F1010BA3EB6B0B5D440FFA75
S214402CE085FB9DE7019A1346002AB8BF01335B1067
S214402CF05746BAF1000FB8BF0AF10107A3EB6707C2
S214402D003E4437B2029A1346002AB8BF01335B10DE
S214402D10CB46B9F1000FB8BF09F1010BA3EB6B0B23
S214402D205D440FFA85FB7BE7E123400009604000E5
S214402D30615140003125400071254000B9284000CF
S214402D401F85EB5130B401F4C044B4F5005F0CD09D
S214402D5002F4C044B4F5005F1BD09042A8BF1046B2
S214402D608842B8BF084630BC704721F4C044B4F52A
S214402D70FA6FEDDCB4F57A7FC8BFC4F57A7403FB0E
S214402D8004F40E4D85FB0415E117C1EB651109B23D
S214402D90DEE722F4C044B4F5FA6FDEDCB4F57A7FA1
S214402DA0C8BFC4F57A7403FB04F3044A82FB0342AB
S214402DB0DB17C3EB621212B2CFE700BF1F85EB51A1
S214402DC030B401F4C044B4F5005F0CD002F4C04403
S214402DD0B4F5005F1BD09042A8BF10468842B8BFEB
S214402DE0084630BC704721F4C044B4F5FA6FEDDCB9
S214402DF0B4F57A7FC8BFC4F57A7403FB04F40E4D6D
S214402E0085FB0415E117C1EB651109B2DEE722F434
S214402E10C044B4F5FA6FDEDCB4F57A7FC8BFC4F5BB
S214402E207A7403FB04F3044A82FB0342DB17C3EBCA
S214402E30621212B2CFE700BF1F85EB5190F82330E5
S214402E4003F00603062B00F05C832DE9F04F8BB0B1
S214402E500446AC4B98470546002800F0548320466D
S214402E60A94B9847009094F8233013F0040F71D084
S214402E70278B0137A38AFF1A3FB200262046A34B72
S214402E809847019094F8233013F0020F00F0028226
S214402E90B4F81A9009F10109E38AA9EB03090FFA7D
S214402EA089F94FF00008002E40F01183B8F1000F6A
S214402EB040F00D83238B0133A28A9B1A1BB29F429C
S214402EC000F00C832046924B984708A92046914B29
S214402ED0984706A92846904B9847002206A908A876
S214402EE08E4B98470646002800F00283E38A013B53
S214402EF09944A4F81A9041F26A4200212046884B31
S214402F009847C0B2012800F0F782A38A013B1F44CD
S214402F10278308AA27212046824FB84722462221E7
S214402F202846B84720467A4B9847002120467E4B95
S214402F309847002206A904F11400784B984716B922
S214402F40002800F0E2822846784B984701200BB0D4
S214402F50BDE8F08F41F2010200212046704B9847B1
S214402F6007B242F2D176B74214BF0026012600F4DB
S214402F70C040B0F5005F1DD028466D4B9847019085
S214402F8042F2D1739F4239D041F2020200212046DC
S214402F90DFF88C81C0470FFA80F941F20302002126
S214402FA02046C047019B02B249463846614FB84763
S214402FB0074663E727F4C048B8F5FA6FDCDC2846D6
S214402FC05B4B9847019042F2D1739F4216D095F8DA
S214402FD0233013F0040F00F03681B8F57A7FC8BF6F
S214402FE0C8F57A78019B08FB03F8534B83FB08230C
S214402FF04FEAE877C7EB63173FB2C5E700221146B2
S21440300020464E4B984741F2320200212046DFF8D8
S2144030101081C047074641F6130200212046C047AC
S214403020BFB2384483B2029341F6120200212046D2
S214403030C047384482B2174603922046404B9847D2
S214403040029BDF1907443FB220463E4B98478246D4
S21440305041F26A4200212046C047C0B201280BD048
S214403060BAF1000F90D0384B4FF00008DFF8E0B0D0
S21440307003951D46A146A7E0BAF1000F84D0324B17
S2144030804FF00008DFF8C8B002951D46A1461DE087
S21440309041F2090200212046214B9847C0B2082839
S2144030A058D8DFE800F0055757055757055705002D
S2144030B0B9F91830B4F914209B1A0133AB42B8BFA3
S2144030C02B461DB208F10108C24555D0D9F8083044
S2144030D01B6853F828404FF001112046D847002877
S2144030E0F0D12046194B98470028D1D0B9F918306E
S2144030F0B4F914209B1A0133AB42B8BF2B461DB21D
S214403100E0E700BF09604000853D4000853C400048
S21440311071284000FD244000B1254000AD0D41001F
S21440312061514000550640009D4E4000494E4000CB
S21440313031254000452D40001F85EB512D44400071
S214403140252640004160400000A0FFFFE1234000EC
S2144031508716400041F2080200212046B64B9847A9
S21440316000B20028AED1238B0133A28A9B1A1BB231
S2144031709D42B8BF1D46A5E72A46029D4C4612F51D
S214403180C04F3FF401AF039B13441BB253E041F2E0
S214403190090200212046A84B9847C0B207282ED8DF
S2144031A0DFE800F004042D2D042D2D04B4F918306A
S2144031B0B9F914209B1A0133AB42B8BF2B461DB257
S2144031C008F10108C2452CD0D9F808301B6853F8DE
S2144031D028404FF001112046D8470028F0D120461D
S2144031E0964B98470028D2D0B4F91830B9F9142035
S2144031F09B1A0133AB42B8BF2B461DB2E0E741F203
S2144032000802002120468C4B984700B20028D7D1B0
S214403210238B0133A28A9B1A1BB29D42B8BF1D4620
S214403220CEE72A46039D4C4612F5C04F3FF4ACAE5F
S214403230029B13441BB213F5C04F3FF4A5AE9F420A
S214403240B8BF1F46A0E641F20102002128467A4B4D
S214403250984700B242F2D17398427FF4BEAE41F234
S214403260320200212046DFF8D091C847074641F693
S214403270120200212046C84738441FFA80F841F61B
S214403280130200212046C8473FB207FA80F747445A
S2144032903FB279E641F2040200212046664B984749
S2144032A00FFA80F942F2D178C14514BF4FF00008BA
S2144032B04FF0010800F4C040B0F5005F1ED028462D
S2144032C05F4B9847029042F2D17399453BD041F20A
S2144032D0050200212046DFF860A1D0470FFA80FBA8
S2144032E041F2060200212046D047029B02B25946D0
S2144032F04846DFF86891C8478146D4E529F4C04A75
S214403300BAF5FA6FDBDC28464D4B9847029042F2FE
S214403310D173994517D095F8233013F0020F00F07B
S214403320AD80BAF57A7FC8BFCAF57A7A029B0AFBA7
S21440333003FA444B83FB0A234FEAEA79C9EB631945
S2144033400FFA89F9C3E70022114620463E4B9847BC
S21440335041F2320200212046DFF8DCB0D8478246F0
S21440336041F6100200212046D8471FFA8AFA5044F8
S2144033701FFA80F941F6110200212046D8475044F2
S21440338083B203932046314B9847039B994481442C
S2144033900FFA89F920462E4B98478346002896D048
S2144033A02C4B4FF0000A049605951D4616E041F258
S2144033B0090200213046204B9847C0B2032828D83F
S2144033C0B6F91A30B4F916209B1A0133AB42B8BF8F
S2144033D02B461DB20AF1010AD34541D0A3681B68AB
S2144033E053F82A604FF0011130461B4B984700288F
S2144033F0F0D13046114B98470028D8D0B6F91A304D
S214403400B4F916209B1A0133AB42B8BF2B461DB207
S214403410E0E741F2080200213046074B984700B2E9
S2144034200028D7D1738B0133F28A9B1A1BB29D4278
S214403430B8BF1D46CEE700BF61514000E1234000C3
S214403440712540001F85EB51CD4440004D2640007D
S2144034504160400000A0FFFF87164000C12D40009D
S214403460049E2A46059D12F5C04F3FF430AF039B9D
S21440347013441BB29945B8BF994628E741F2040267
S21440348000212846224B984700B242F2D173984218
S2144034907FF447AF41F2320200212046DFF870A0A9
S2144034A0D047834641F6100200212046D047584474
S2144034B01FFA80F941F6110200212046D0470FFA44
S2144034C08BFB0BFA80FBD9440FFA89F9FFE6002301
S2144034D0019A009920460F4EB047EBE4638B0133C8
S2144034E0E28A9B1A1BB299457FF4ECAC00202EE58D
S2144034F02846094B9847F9E4238B0133DF1BA78204
S21440350007E500207047002021E501201FE500BFA9
S214403510615140002D454000494E400070B505467B
S214403520254B984780B106460024AB681B6853F885
S2144035302400FFF7F3FF0134A642F6D195F8223077
S21440354013F0010F12D170BD95F8223013F0010F21
S214403550F9D095F822306FF3000385F822302846DC
S214403560164B98472846164B984770BD95F822301C
S2144035706FF3000385F822302846104B98472846BC
S2144035800F4B984741F26902002128460D4B984759
S21440359080B280B10C4B1B689842D4D86FF0604321
S2144035A003440A4A126802EBC30152F833304968B2
S2144035B02846984770BD70BD416040003D2E400093
S2144035C0312A4000615140001C0A4020E49E4320BE
S2144035D038B5104B1B7803B138BD01220D4B1A701D
S2144035E00D4B9847044690F8223013F0020F0DD04A
S2144035F00A4D94F822306FF3410384F82230204677
S214403600A84794F8223013F0020FF2D10022014B63
S2144036101A70E1E7200A4020795F40001D354000DF
S2144036202DE9F04F85B081460D4692460293AF4B4A
S2144036309847002D53D04846AD4B9847804641F2B8
S21440364032020021DFF8ACB2D847064641F61202F5
S21440365000214046D847B6B2304403B2019341F603
S214403660100200214046D847064436B241F23202A4
S21440367000212846D847044641F612020021284633
S214403680D847A4B2204483B203931FB241F6100237
S21440369000212846D8470444A4B20FFA84FBBAF166
S2144036A0000F21D00AF1FF3ABAF1140F00F2598206
S2144036B0DFE81AF023008A00A200B000C000E7004E
S2144036C0040130015B005A01660187019C01A70195
S2144036D0C701DB01E50105021C02240242024846FE
S2144036E0834B98470546A6E741F26A4200212846A2
S2144036F0804B9847C0B201287ED041F26A420021F2
S21440370040467C4B9847C0B20128B5F91440029B0E
S2144037101C44B8F91400A4EB000440460CBF764B9A
S214403720764B98472044019BC01A07443FB2B5F9F0
S2144037301640BDF938000444B8F91600241A40462D
S2144037406F4B98472044861BB3441FFA8BFB0022DE
S214403750012148466B4B98470FFA8BF2394648464C
S214403760694B984705B0BDE8F08F2846674B9847A9
S214403770B9F818300133B9F814209B1A1BB2002B45
S214403780B8BF0133039AA2EB630703460028B8BFCD
S214403790431C07EB63073FB228465D4B9847B9F892
S2144037A01A300133B9F816209B1A1BB2002BB8BF4B
S2144037B00133A4EB630B03460028B8BF431C0BEB56
S2144037C0630B0FFA8BFB98E72846504B9847B9F89F
S2144037D018300133B9F814209B1A1BB2002BB8BF1F
S2144037E00133039AA2EB630703460028B8BF431C85
S2144037F007EB63073FB280E72846444B9847039B56
S2144038005F1EB9F814301F44B9F81830FF1A074441
S2144038103FB272E728463E4B984704F1FF3BB9F863
S2144038201640A344B9F81A30ABEB030B83440FFAA7
S2144038308BFB62E72846354B9847B9F8183001337A
S214403840B9F814209B1A1BB2002BB8BF0133039A59
S214403850A2EB630703460028B8BF431C07EB630789
S2144038603FB228462A4B984704F1FF3BB9F816402A
S214403870A344B9F81A30ABEB030B83440FFA8BFB27
S2144038803BE72846214B9847039B5F1EB9F8143008
S2144038901F44B9F81830FF1A07443FB228461C4B5D
S2144038A0984704F1FF3BB9F81640A344B9F81A30DC
S2144038B0ABEB030B83440FFA8BFB1EE72846144BF7
S2144038C09847B9F81A300133B9F816209B1A1BB23C
S2144038D0002BB8BF0133A4EB630B03460028B8BFE8
S2144038E0431C0BEB630B0FFA8BFB06E7D13540000E
S2144038F00960400061514000813E4000853D4000E7
S214403900853C40003D5F4000C523400031254000D7
S214403910712540002846954B9847039B5F1EB9F893
S21440392014301F44B9F81830FF1A07443FB22846EF
S2144039308F4B9847B9F81AB00BF1010BB9F816300F
S214403940ABEB030B0FFA8BFBBBF1000FB8BF0BF1D1
S214403950010BA4EB6B0B04460028B8BF441C0BEBD2
S214403960640B0FFA8BFBC8E6B9F81AB0B9F81630F4
S214403970ABEB030B6FEA0B0B0FFA8BFB0027BCE697
S2144039802B8B0133AA8A9B1A1BB2002BB8BF01337C
S2144039905F10B9F818300133B9F814209B1A1BB2DF
S2144039A0002BB8BF0133A7EB63073FB2B9F81AB094
S2144039B0B9F81630ABEB030B6FEA0B0B0FFA8BFB29
S2144039C09BE6B9F81870B9F81430FB1A2F8BFF1A1B
S2144039D0AB8AFF1A3FB2B9F81AB0B9F81630ABEB5B
S2144039E0030B6FEA0B0B0FFA8BFB86E6B5F81AB0A3
S2144039F00BF1010BEB8AABEB030B0FFA8BFB0027AB
S214403A007BE62B8B0133AA8A9B1A1BB2002BB8BFCE
S214403A1001335F10B9F818300133B9F814209B1AF7
S214403A201BB2002BB8BF0133A7EB63073FB2B5F814
S214403A301AB00BF1010BEB8AABEB030B0FFA8BFBC7
S214403A405BE6B9F81870B9F81430FB1A2F8BFF1ADA
S214403A50AB8AFF1A3FB2B5F81AB00BF1010BEB8AEE
S214403A60ABEB030B0FFA8BFB47E6B9F81870B9F8C7
S214403A701430FF1AFF433FB24FF0000B3DE6B9F853
S214403A801870B9F81430FF1AFF433FB26B8B0133FE
S214403A90EA8A9B1A1BB2002BB8BF01334FEA630B6E
S214403AA0B9F81A300133B9F816209B1A1BB2002B0E
S214403AB0B8BF0133ABEB630B0FFA8BFB1DE6B9F8CF
S214403AC01870B9F81430FF1AFF433FB2B9F81AB06D
S214403AD0B9F81630ABEB0303B5F81AB0ABEB030BF3
S214403AE0EB8AABEB030B0FFA8BFB06E62F8B01370B
S214403AF0AB8AFF1A3FB24FF0000BFEE52F8B013723
S214403B00AB8AFF1A3FB26B8B0133EA8A9B1A1BB211
S214403B10002BB8BF01334FEA630BB9F81A300133B4
S214403B20B9F816209B1A1BB2002BB8BF0133ABEB7B
S214403B30630B0FFA8BFBE0E52F8B0137AB8AFF1A3E
S214403B403FB2B9F81AB0B9F81630ABEB0303B5F884
S214403B501AB0ABEB030BEB8AABEB030B0FFA8BFB0A
S214403B60CBE54FF0000B5F46C7E500BF3125400070
S214403B707125400070B50D4609B902B970BD1646AC
S214403B8004460D4B9847A268138A2B441382A268BA
S214403B90538A334453820123324629462046074DF2
S214403BA0A84700220B212046054B98470128E5D11F
S214403BB02046044B9847E1E76D1B4000B526400081
S214403BC0550640007128400008B500220A210068CA
S214403BD0014B984708BD00BF5506400083681BB19F
S214403BE0187E00F0030070470320704783681BB1BF
S214403BF0587E00F00F0070470F20704783681BB157
S214403C00187EC0F3810070470020704783681BB160
S214403C10187EC0F30110704700207047836823B1B8
S214403C20188A404280B200B270470020FBE700008E
S214403C3038B505460C46044B98470119002209B290
S214403C402846024B984738BD1D3C4000753B400017
S214403C50836823B1588A404280B200B27047002041
S214403C60FBE7000038B505460C46044B984702195A
S214403C7012B200212846024B984738BD513C4000BE
S214403C80753B4000836823B1588A404280B200B2F8
S214403C9070470020FBE700002DE9F0470646324B10
S214403CA0984700284BD080460024304F4FF0011AEA
S214403CB0DFF8CC9002E00134A0450ED0B3681B6814
S214403CC053F8245051462846C8470028F3D1B5F942
S214403CD01A309F42B8BF1F46EDE741F6100200215A
S214403CE03046234DA847804641F611020021304613
S214403CF0A847044641F2320200213046A84705460E
S214403D0017F5C04F04D02018738BC01A07443FB233
S214403D103046184B984781463046174B98474444A0
S214403D204C4404EB4504241AA4B23046134B98473F
S214403D30201A00B2B842B8BF3846BDE8F08741F610
S214403D401002002130460A4DA847804641F611022F
S214403D5000213046A847044641F232020021304650
S214403D60A8470546014FD3E74160400000A0FFFF4B
S214403D70615140004D26400023254000513C400004
S214403D80871640002DE9F04F83B0054641F26A425F
S214403D900021344B9847C0B2012808D0AB68002BAE
S214403DA05DD0188A404200B203B0BDE8F08F41F6BD
S214403DB01302002128462B4CA047019041F61202E0
S214403DC000212846A047834641F232020021284679
S214403DD0A04782462846244B9847804600283AD03B
S214403DE04FF4C0470024DFF8949002E00134A04529
S214403DF00FD0AB681B6853F824604FF00111304673
S214403E00C8470028F2D1B6F914309F42A8BF1F46D3
S214403E10ECE7B7F5C04F20D00BEB0A00AB8A18444E
S214403E20C71B3FB22846114B984706462846104BBC
S214403E3098470446019B5B4403EB4A0AB2441FFA88
S214403E408AFA28460B4B98475044001B00B2B842AB
S214403E50B8BF3846A8E7084FE4E7074FE2E7002038
S214403E60A2E700BF61514000416040002526400067
S214403E70172540001D3C400000A0FFFF871640006D
S214403E802DE9F047064641F26A4200213A4B9847F0
S214403E90C0B201280CD03046384B984780460028A0
S214403EA054D00024364F4FF0011ADFF8E49009E072
S214403EB0B368002B47D0B3F91000BDE8F087013453
S214403EC0A0450ED0B3681B6853F824505146284688
S214403ED0C8470028F3D1B5F918309F42B8BF1F46EF
S214403EE0EDE741F6130200213046234DA8478046B1
S214403EF041F6120200213046A847044641F23202FB
S214403F0000213046A847054617F5C04F04D0404428
S214403F10338BC01A07443FB230461A4B9847814607
S214403F203046194B984744444C4404EB4504241A05
S214403F30A4B23046154B9847201A00B2B842B8BFD4
S214403F403846BDE8F0870020BDE8F08741F613020A
S214403F5000213046084DA847804641F6120200210F
S214403F603046A847044641F2320200213046A84770
S214403F700546034FD0E700BF615140004160400016
S214403F8000A0FFFF25264000172540001D3C4000AE
S214403F90871640002DE9F04192B00E4619B912B985
S214403FA012B0BDE8F08115460446012B17D03B49B8
S214403FB03B4FB84780463B492046B84707462A46C7
S214403FC031462046384B9847B8F1000F01D1002FB4
S214403FD0E6D000220A212046344B9847E0E7344B8F
S214403FE09847074601A8334B98470194324B0493B1
S214403FF0002E2AD1002DD3D03846304B98472A463B
S214404000002140F35D002E4B9847C82838BFC82093
S214404010B0F5C87F28BF4FF4C8700B902046294B98
S2144040209847434208930993281A0A901B4B0293D9
S214404030254B079301AA092120461C4B9847012887
S214404040AED101A8214B9847AAE73846204B98475F
S2144040503246002140F35D00194B9847C82838BFC8
S214404060C820B0F5C87F28BF4FF4C8700B902046D4
S214404070184B9847434208930993301A0A90094BC5
S2144040800293114B079301AA09212046074B9847F4
S214404090012885D101A80D4B9847ABE7653C400009
S2144040A02D094100313C4000753B4000550640001C
S2144040B0895F4000F5084100C93B40008905410042
S2144040C0D50A4100513C4000F10A4100B90941007F
S2144040D0590541001D3C40002DE9F04F89B081460E
S2144040E00D460391904602930846B64B98470446C1
S2144040F01021B54B9847002800F093812046B34BDB
S214404100984701902046B24B98470490002800F00C
S214404110C18005F1140A41F2320200212046AD4E1C
S214404120B047074641F6100200212046B047BFB2CE
S214404130384485B241F6110200212046B047384443
S2144041401FFA80FBB8F80230EE1AE28A1644BAF834
S2144041500220B61A36B25B44628B9B1ABAF8062027
S21440416013449BB207931BB2059320469A4B98473D
S2144041700690002EC0F29080059B002BC0F28C80EB
S2144041800026049B022B00F0A880032B00F0AE8094
S214404190012B00F09B802046904B9847834610B1F9
S2144041A0039B03F1140941F6120200212046894D73
S2144041B0A84738441FFA80FA41F6130200212046E9
S2144041C0A8470744BFB2B8F80030AAEB0305A28A56
S2144041D01544B9F80020AD1A2DB23B44228B9B1AE9
S2144041E0B9F8042013449BB21AB2002DC0F29C804A
S2144041F0002AC0F2998000252046794B9847BBF1AB
S214404200020F00F0B180BBF1030F00F0B480BBF1A9
S214404210010F00F0A18073492046734FB84781468E
S21440422072492046B847B9F1000F40F0BE800028DA
S21440423040F0BB80019B13F0010F03D115F4004FF3
S21440424040F0BB80019B13F0020F06D1002DD4BF77
S21440425000230123002B18BF0025019B13F0040FF9
S21440426003D116F4004F40F0AA80019B13F0080FCC
S21440427006D1002ED4BF00230123002B18BF0026F2
S214404280B8F90030029A002A40F0BC80B8F80230F4
S2144042900022BDE0CA463EE7002E07DD2046544BCE
S2144042A09847801B0028B8BF00266AE7059B002B6E
S2144042B00ADD079B5E4236B220464E4B9847304456
S2144042C00028B8BF00265CE700265AE7E68A2E4458
S2144042D0BAF80250761B36B25DE7668BA6EB0B0645
S2144042E0BAF806B0A6EB0B0636B254E7BAF8023078
S2144042F0069A561BA6EB0B0B0FFA8BFBBBF1000F77
S214404300B8BF0BF1010BE68A2E44F61A06EB6B0695
S214404310BAF806200132D31A1BB2002BB8BF0133BD
S214404320A6EB630636B236E7002D07DD2046324B55
S214404330984728440028C8BF00255DE7002A09DDC5
S2144043405D422DB220462D4B984728440028B8BFE2
S214404350002551E700254FE7A58A5544B9F800A047
S214404360A5EB0A052DB256E7258BED1BB9F8047070
S214404370ED1B2DB24FE7B9F80020A58A5544AD1A7B
S214404380B9F8043001339B1A1BB2002BB8BF013377
S214404390A5EB6305A0EB0A00C71B3FB2002FB8BFD2
S2144043A0013705EB67073DB235E700220A21204674
S2144043B0134B9847012834D13CE700254DE70026AB
S2144043C05EE700BF0960400079164000ED3B4000C4
S2144043D00D3C40006151400023254000FD3B40001D
S2144043E017254000653C40002D094100313C400007
S2144043F0853C4000993C4000853D4000813E400061
S214404400550640002B44A8F80030B8F80230324633
S2144044101344A8F80230029B324629462046024CF6
S214404420A04709B0BDE8F08F953F4000F8B5054677
S2144044300C4617461E491F4B984741F26A420021D8
S21440444028461D4B9847C0B201281CD024EAE47485
S214404450002C0DDD2846194B984706462846184B33
S2144044609847304400B220EAE0708442A8BF044631
S2144044702846144B9847011B3B46002209B2284663
S214404480114CA047F8BD04EAE474002CF0DA284644
S2144044900A4B984706462846094B984733181BB29E
S2144044A023EAE3735A429442E2DA14B2E0E700BFEA
S2144044B0313C40002D09410061514000853D40009F
S2144044C0813E40001D3C4000953F4000F8B5064602
S2144044D00C4617460F49104B984724EAE474002CC4
S2144044E00DDD30460D4B9847054630460C4B9847F9
S2144044F0284400B220EAE0708442A8BF0446304612
S214404500084B9847021B3B4612B200213046064CE9
S214404510A047F8BD653C40002D094100853C400061
S214404520993C4000513C4000953F400070B50546E0
S21440453016461C461A46044B98472246314628469D
S214404540024B984770BD00BF2D444000CD4440000C
S2144045502DE9F04182B005460E460F4B98470023A2
S214404560ADF80430ADF8063028460C4B984778B185
S21440457004462946DFF82880084F334601AA05F14D
S2144045801400C0472046B847214604460028F4D1C8
S21440459002B0BDE8F08100BFD13540000960400060
S2144045A0D94040002DE9F04F8FB004460F461646DE
S2144045B04FF0FF3500952B46002211463846DFF86F
S2144045C01082C04700952B46002211463046C04711
S2144045D010212046724B9847029020B12046714BDE
S2144045E09847804610B90FB0BDE8F08F00206E4B5C
S2144045F098470546B8F1020F25D020466B4B9847A2
S214404600814620466A4B984703902046694B984718
S21440461005902046684B984704902046674B98473D
S214404620824610F00C0F00F00384B8F1010F76D0EC
S214404630B8F1030F41D010F0030FD4D04FF0000B69
S214404640CDF808B070E00028CDD0DFF88891DFF8CC
S21440465058A12846C847844205D02846D047054634
S2144046600028F6D1BFE7002DBDD020464F4B9847D7
S214404670814620464E4B9847039020464D4B9847E0
S214404680059020464C4B9847049020464B4B984705
S214404690824610F00C0F2AD14FF0000B1AF0030F91
S2144046A040D0B8F1010F45D0B8F1030F14D0B8F19F
S2144046B0020F28D00023029336E0039B002BD8BF7E
S2144046C0B9F1000FCCBF4FF0010B4FF0000BE5DD0A
S2144046D010F0030F00F0B383059B049A002AD8BF5E
S2144046E0002BCCBF0123002324DC02931CE0284689
S2144046F0334B98470C2814BF4FF0000B4FF0010B7C
S2144047001AF0030F08D028462D4B9847032814BFAD
S21440471000230123029307E00023029304E0DDF820
S21440472008B0BBE700230293029B1BB9BBF1000F06
S2144047303FF459AF41F26A424FF480312046214D52
S214404740A847C3B20C9341F610024FF4803120467E
S214404750A8470B9003B2069341F613024FF48031FC
S2144047602046A8478246079041F201024FF4803126
S2144047702046A847054608902046134B9847804653
S2144047802046124B98470A90BBF1000F24D0AA440B
S2144047900FFA8AF30D93029B03BB0023099322E092
S2144047A079164000DD3B400019064100853C40003C
S2144047B0993C4000853D4000813E4000ED3B400036
S2144047C0A50C4000615140002325400017254000BD
S2144047D06F0B4100C50C400000230D93089B079AC1
S2144047E013449BB2099321224FF480312046C64B96
S2144047F09847C0B2012840F218811FFA88F5A944AC
S214404800039B99441FFA89F90FFA89F2002A6AD065
S214404810BBF1000F67D0B4F916307380B4F91A3084
S214404820F3800C9B012B00F00B81238B07995B1ABE
S2144048309BB2B3800899C1F101010B443380BDF9A6
S21440484024B0069BA8EB430AAAEB0B0A08FB0AFA1D
S2144048509AFBF2FA0FFA8AFAD0460020AB4B9847FA
S21440486000EB800043005033B3F5A07F80F2F28027
S2144048700123434580F2FC80BDF82C80A9EB050956
S2144048800FFA89F9B9F1000F40F310811FFA8AFA3E
S214404890A5EB4803099A9B1AA3EB0A039BB2E28A4C
S2144048A042441A441BB2039901FB03F191FBF9F30E
S2144048B0D31A9BB21AB272800AF1FF3A5344F3807D
S2144048C0B4F91630069959188A42C0F2FA80B4F9FB
S2144048D01A30B6F90620A3EB0B0B0699ABEB010B8F
S2144048E05A4500F33181DDF828E01FFA8EF5059B26
S2144048F01E462E44049B1E44B6B231B200293FF4F5
S21440490072AE029B002B3FF46EAE628B0798121A73
S21440491092B2FA800898C0F1010313447B80B4F940
S21440492014303B80B4F91830BB80DDF834C0E34621
S2144049300698AEEB4008A8EB0C080EFB08F898FB70
S214404940F1F80FFA88F8C1460020704B984700EB04
S214404950800043005033B3F5A07F80F235810123B9
S2144049604B4580F23F81BDF82C90BDF834A0761BB5
S21440497036B2002E40F354811FFA88F8A5EB49035F
S214404980A3EB0A03A3EB08039BB21AB2049901FBFC
S21440499002F191FBF6F69B1B9BB20C9A012A00F0A3
S2144049A05B81A28A4A4413449BB21AB23A8008F109
S2144049B0FF384344BB80B4F91430069959188A42EC
S2144049C0C0F2DB81B4F91820B7F90410A2EB0B0350
S2144049D006981B1A99427FF706AEA2EB0A04A4EB90
S2144049E0090424B2BC800020484B984700EB800066
S2144049F043005033B3F5A07F80F2FC810123E41AD4
S214404A00B7F900309C42BFF6EEADBC8800203F4B65
S214404A10984700EB800043005033B3F5A07F80F208
S214404A20FB810123E31A3B80DDE531224FF48031E0
S214404A302046354B9847C0B201283FF6DEAED2E559
S214404A40A38A07990B449BB23380089901390B44DB
S214404A50B380F4E600202D4B984700EB80004300DF
S214404A6050332B4A82FB0312DB17C3EBA21300E73B
S214404A700020264B984700EB800043005033B3F5A8
S214404A80A07F02DA4FF0010AF6E600201F4B984757
S214404A9000EB8000430050331D4A82FB03124FEA6E
S214404AA0E37ACAEBA21A0FFA8AFAE5E6E38A4344A7
S214404AB073806FEA0803628B1344099A9B1AF3804B
S214404AC011E743441DB275800020104B984700EB19
S214404AD0800043005033B3F5A07F1BDA01231D440A
S214404AE0B6F906309D427FF7F2AE75880020074B38
S214404AF0984700EB800043005033B3F5A07F17DAA9
S214404B0001231D44F580E2E661514000B9054100AD
S214404B10676666660020BE4B984700EB8000430001
S214404B205033BC4A82FB0312DB17C3EBA213D6E713
S214404B300020B74B98470A2303FB00F35033A022CC
S214404B4093FBF2F39BB2DCE7099A9D1AA5EB0805A6
S214404B502DB2F5800020AE4B984700EB8000430016
S214404B605033B3F5A07F15DA0123ED1AB6F90230BB
S214404B709D42BFF6B8AEF5880020A54B984700EB9F
S214404B80800043005033B3F5A07F11DA0123EB1ABF
S214404B907380A8E600209E4B984700EB80004300B9
S214404BA050339C4A82FB0312DB17C3EBA213DCE7AD
S214404BB00020974B98470A2303FB00F35033A0226C
S214404BC093FBF2F39BB2E2E70020914B984700EB51
S214404BD08000430050338F4A82FB0312DB17C3EB3F
S214404BE0A213BDE600208A4B984700EB80004300A6
S214404BF05033B3F5A07F02DA4FF00108B3E6002049
S214404C00834B984700EB800043005033814A82FB39
S214404C1003124FEAE378C8EBA2180FFA88F8A2E628
S214404C200C9B012B0BD0A38A4B443B806FEA0903B5
S214404C30228B1344A3EB0A0AA7F804A0D3E409F195
S214404C40FF33A28A13449A44A7F800A0238BA3EB11
S214404C500909A7F80490C6E4A28A4A445244134479
S214404C609BB219B2398008F1FF384344BB80B4F98F
S214404C701420069BD3189B4459452CDBB4F91830B6
S214404C80B7F90410069A9A1A91427FF7ACACA3EB98
S214404C9009031CB2BC8000205D4B984700EB8000A7
S214404CA043005033B3F5A07F50DA0123E41AB7F936
S214404CB000309C42BFF697ACBC880020544B9847C7
S214404CC000EB800043005033B3F5A07F49DA012360
S214404CD0E31A3B8087E409EB020555442DB23D803C
S214404CE000204B4B984700EB800043005033B3F511
S214404CF0A07F14DA01232B44B7F904209342BDDD8C
S214404D003D880020424B98470A2303FB00F350336C
S214404D10B3F5A07F0EDA01232B44BB80AEE700201C
S214404D203B4B98470A2303FB00F35033A02293FBE8
S214404D30F2F3E0E70020364B98470A2303FB00F3E4
S214404D405033A02293FBF2F39BB2E5E70020304BB2
S214404D5098470A2303FB00F35033A02293FBF2F359
S214404D60A4E700202A4B98470A2303FB00F350335E
S214404D70A02293FBF2F39BB2AAE74B441DB23D80C0
S214404D800020234B984700EB800043005033B3F598
S214404D90A07F15DA01232B44B7F9042093427FF70E
S214404DA011AE3D8800201A4B984700EB8000430028
S214404DB05033B3F5A07F11DA01232B44BB8001E6C4
S214404DC00020134B984700EB800043005033114AB5
S214404DD082FB0312DB17C3EBA213DCE700200C4B6D
S214404DE098470A2303FB00F35033A02293FBF2F3C9
S214404DF09BB2E2E70020064B984700EB800043005A
S214404E005033044A82FB0312DB17C3EBA213F6E5CA
S214404E10B90541006766666600200A4B98470A2334
S214404E2003FB00F35033A02293FBF2F39BB2F9E569
S214404E3010F0030F3FF4D7AB4FF0000B31E40023E4
S214404E40029377E4B905410010B584B004466A463B
S214404E5002A90F4B984702A80E4B984718B96846C8
S214404E600C4B984738B102A80A4B984728B9684671
S214404E70084B984730B904B010BD02A92046064BEF
S214404E809847F4E769462046034B9847F3E700BF48
S214404E90A5454000910B41002D284000F8B504463A
S214404EA00D46264B984720B12046254B9847B8B12B
S214404EB0F8BD2046234B984706462046224B984747
S214404EC010F4004FF0D0002EEEDD4042B042A8BFB6
S214404ED030462B4602B2002120461C4EB047E3E740
S214404EE020461B4B9847074620461A4B984706468F
S214404EF041F26A4200212046174B9847C0B201282B
S214404F000FD016F4004FD3D0002FD1DD7642BE42EC
S214404F10A8BF3E462B46002231B220460B4CA04747
S214404F20F8BD17F4004FC3D0002EC1DD2B4600223B
S214404F3039462046054CA047BAE700BF0D3C400026
S214404F40FD3B4000853C4000993C4000953F40007A
S214404F50853D4000813E4000615140002DE9F04FC4
S214404F6085B082468946029298462D482D4B9847F2
S214404F700446002301932C4E0CE0A2884FF6FF73A4
S214404F800299994218BF8A420CBF0123002303931B
S214404F9012D03C4644453FD0002C3DD021462048C8
S214404FA0B047074625685545F3D1A3684B45E4D03E
S214404FB0B9F5702FEDD1E0E76B8C13F4FC7FE8D0A9
S214404FC04FF0000B17E0A1888058184B98470021F7
S214404FD02046174B984721461148164B984720467F
S214404FE0154B9847039B01930BF1010B6B8CC3F356
S214404FF0C5035B45CDD94FEACB02E8688318D9791B
S21440500011F0020FF0D0B9F5702FDCD05B68C3F317
S21440501017039945E8D1D6E7019805B0BDE8F08F6B
S2144050209C9E4320C7124100D91241005D26410094
S2144050302D09410055124100FD1441002DE9F0476D
S21440504080460F4B9847C0B1074600250D4EAA46EE
S214405050DFF83490D8F808301B6853F825402046CF
S214405060B047524628212046C8472046B0472046EB
S214405070FFF7E4FF0135AF42ECD1BDE8F08700BF53
S214405080416040007128400055064000F8B5468C07
S214405090C6F3C506B6B13546C7683B46002203E0B0
S2144050A001320833AA420DD0DC7914F0020FF7D053
S2144050B05C68C4F317048C42F2D1964202D007EBE8
S2144050C0C200F8BD0C460546711C01F03F01438CFA
S2144050D061F3C8034384C900C068154B9847E8602D
S2144050E06A8CC2F3C502013A09D0D600EB68334455
S2144050F013E9030083E80300083E013AF6D108218D
S214405100E8680C4B9847EE6808200B4B9847306091
S214405110EB681868094B9847EA68D37943F002036E
S214405120D371EB685A6864F317025A60E868F8BDB2
S21440513059194100091B4100D1184100ED25410095
S21440514008B514210148024B984708BD9C9E432051
S214405150AB114100014B1870704700BF0A00402059
S2144051602DE9F04F87B006468B46009202F48063E6
S2144051700293134612F48042039203D023F48043F2
S2144051809BB20093002E75D1BBF1000F0CD141F2BB
S21440519001030099994200F0908041F2040399423D
S2144051A000F08B804FF0000B0098624B984751E020
S2144051B00134738CC3F3C5039C4251D2F36803EBAE
S2144051C0C403DA7912F0020F14D0002DF0D15A68D9
S2144051D002F47F025A45EBD11868837918EA030F28
S2144051E0E6D005AA0099544B98470028E0D0059889
S2144051F030E00024E7004FF0FF3A08E0059829E049
S21440520001340837738CC3F3C5039C421ED2F26840
S214405210D3195B68C3F3170303F47F015945EFD1F5
S214405220D059827918EA020FEAD09DB219EA050FE2
S214405230E6D15545E4DD05AA00993F4B984700283E
S214405240DED0019BAB42D9D0AA46D9E7BAF1000FCF
S21440525006DB0598039B002B50D107B0BDE8F08FC6
S214405260029B002B90D0BBF1000F21D04FF0000BDB
S214405270002E8CD00098314B98474FF0010808FA22
S21440528000F85FFA88F8338C01936FEA03091FFA37
S21440529089F996F82250C5F38005738C13F4FC7F89
S2144052A0DED0F368DA7912F0020FA2D000248CE741
S2144052B03046234B98470646D8E733689BB141F2C1
S2144052C00101009804E0B3F91420A2B91B6853B159
S2144052D08842F8D0B3F91620002AF7D0B3F9160062
S2144052E04FF0000BB6E741F20103009A9A4201D014
S2144052F00023F3E70023B3F91400F1E70446002E39
S214405300ABD0632259463046FFF72AFF054640B1E8
S214405310036833B1642259463046FFF721FFC2B2D4
S2144053200AB9204699E72B6821462846984760F3F5
S2144053300F04F6E71128410081274100F328410079
S21440534009604000384B1B7803B9704770B5154666
S2144053500C460646354B984704F47F0415F4805FA8
S21440536021D0B4F5702F16D0ACB141F20402002122
S21440537030462F4B984700B242F2D17398420AD03B
S21440538041F2010200213046294B984700B242F2D2
S214405390D17398420BD1002228213046254B98479E
S2144053A03046254B9847B4F5702F17D0B4B14FF61A
S2144053B0FF739D4229D015F4006F2DD130461B4B0C
S2144053C0984715F4806F2ED015F4C05F2BD0B4F5F7
S2144053D0803F28D03046194B984770BD4FF6FF7334
S2144053E09D420CD015F4005FE5D03046144B9847EC
S2144053F003460028DFD018460F4B9847D7E730467D
S2144054000F4B984703460028F5D130460D4B98473A
S2144054103046064B9847DAE730460A4B98473046C0
S214405420024B9847CDE770BD0A00402071284000E7
S2144054306151400055064000252440003D50400044
S21440544009604000E52240002DE9F04104460F4641
S214405450164600234FF6FF723146274DA847618C0B
S214405460C1F3C501002945D00846E368002503E09E
S21440547001350833854206D0DA7912F0020FF7D1AB
S21440548012F0010FF4D1013101F03F01638C61F35A
S214405490C8036384C900E068184B9847E060628C94
S2144054A0C2F3C502013AAA420CD94FEAC20EE368DB
S2144054B0734413E9030083E80300013AAEF1080E93
S2144054C0AA42F4D84FEAC508E068082140440C4B8D
S2144054D09847E36843F83570E36843445A6866F390
S2144054E017025A604FF6FF7231462046054B9847E2
S2144054F0BDE8F0810D46C6E75D4F400059194100B2
S214405500091B4100455340002DE9F04F83B0064645
S21440551097B202F47F088A4681B191F8079019F154
S214405520000918BF4FF00109C9F100091FFA89F9AF
S21440553000221546DFF800B1019709E04FF6FF79E3
S214405540F6E7BAF1000F1ED00B689A451BD001351E
S214405550738CC3F3C5039D425AD2EC00F1682144D4
S2144055604B68C3F317034FF6FF70019F874202D084
S21440557098B2B842EBD103F47F034345E1D0B8F587
S214405580702FE4D1DDE7CB7913F0020F2DD1F3680D
S2144055901A19D27912F0030F2FD1738CC3F3C503B7
S2144055A05A1E954214D22946019FF3684A1C04F1BC
S2144055B0080E1C44734493E8030084E80300738C8D
S2144055C0C3F3C50311467446581E9042EDD8019762
S2144055D03F3303F03F01738C61F3C8037384C90003
S2144055E0F068D847F0600122B2E700234FF6FF721A
S2144055F0414630460C4FB847C9E718590B4B9847B9
S214405600F36818590A4B9847F36800221A51C4E7C2
S214405610B9F1000F05D022B14A4641463046054B07
S214405620984703B0BDE8F08F5D4F4000FD25410030
S214405630FD14410045534000591941002DE9F843F7
S21440564004682568B4F804902B482C4B98470028EB
S21440565049D00146DFF8A080294F04E04046B847CD
S214405660014600283FD08C42F8D00A6823689A4208
S214405670F4D18A68A3689A42F0D18A88A3889A426D
S214405680ECD12CE0D8F8042022F07F42E15928469D
S2144056901C4B9847BDE8F88301330832834220D03C
S2144056A0DF00D17911F0020FF6D05168C1F317012F
S2144056B0A668B142F0D121460F48134B9847204682
S2144056C0124B9847EC6804EB07084946E059104BE4
S2144056D09847EB68D8590F4B98470028D2D1BDE879
S2144056E0F883BDE8F883B5F822E0CEF3C50000287D
S2144056F0F5D0EA680023D3E79C9E4320BD124100C4
S214405700D11241000955400055124100FD14410098
S2144057105D264100E92841002DE9F04782B0066841
S214405720778CC7F3C507002F6AD08E46002202E06A
S2144057300132BA4264D0D500F3682B44DC7914F0C9
S214405740020FF5D05C68C4F3170481688C42EFD131
S2144057508488442C19D010D9672C54D023D8472C91
S21440576013D0632C29D1C768002F52D0026972B378
S214405770BEF17F0FC8BF174629E0342C10D8332C13
S21440578020D2202C01D0302C17D1BEF1000F42DDA4
S214405790BEF1FE0F44DD028A002762F30F0716E0D3
S2144057A03B2C0AD1F1E740F257429442EDD041F209
S2144057B05942944227D0682C04D0BEF1000F7AD1CB
S2144057C0C76804E0BEF1FE0FD4BFC76807698046CD
S2144057D001AA21461868434B984710B1019CA7423E
S2144057E076D0F3683A46B8F8041058593E4B984776
S2144057F0B8F80420D8F80810D8F800003B4B984773
S21440580002B0BDE8F087BEF1FE0FD4BFC768076997
S214405810DDE70769DBE78289002762F30F07D6E7F3
S2144058205FFA8EF7C7F1FF0890F810E04FEADE0205
S214405830017B4FEAD10C08FB0CFC07FB02C280320E
S21440584002EB022C02EBCC12C2F3C45C0EF0070251
S21440585090F811E04FEA5E1909EBC20201F0070A20
S21440586090F80D904FEA591101EBCA0108FB01F17F
S21440587007FB0212803202EB022102EBC1120EF04D
S2144058801F0109F01F0908FB09F807FB0181803159
S21440589001EB012701EBC711C1F3C4514FEA926EE9
S2144058A000276EF302076CF3C70761F30C27D20D8F
S2144058B062F34F378BE7BEF1FF0F07D0C768026928
